{
  "contractName": "Election",
  "abi": [
    {
      "inputs": [
        {
          "internalType": "string",
          "name": "_name",
          "type": "string"
        }
      ],
      "stateMutability": "nonpayable",
      "type": "constructor"
    },
    {
      "inputs": [
        {
          "internalType": "uint256",
          "name": "",
          "type": "uint256"
        }
      ],
      "name": "candidates",
      "outputs": [
        {
          "internalType": "string",
          "name": "name",
          "type": "string"
        },
        {
          "internalType": "uint256",
          "name": "voteCount",
          "type": "uint256"
        }
      ],
      "stateMutability": "view",
      "type": "function"
    },
    {
      "inputs": [],
      "name": "electionName",
      "outputs": [
        {
          "internalType": "string",
          "name": "",
          "type": "string"
        }
      ],
      "stateMutability": "view",
      "type": "function"
    },
    {
      "inputs": [],
      "name": "owner",
      "outputs": [
        {
          "internalType": "address",
          "name": "",
          "type": "address"
        }
      ],
      "stateMutability": "view",
      "type": "function"
    },
    {
      "inputs": [],
      "name": "totalVotes",
      "outputs": [
        {
          "internalType": "uint256",
          "name": "",
          "type": "uint256"
        }
      ],
      "stateMutability": "view",
      "type": "function"
    },
    {
      "inputs": [
        {
          "internalType": "address",
          "name": "",
          "type": "address"
        }
      ],
      "name": "voters",
      "outputs": [
        {
          "internalType": "bool",
          "name": "authorized",
          "type": "bool"
        },
        {
          "internalType": "bool",
          "name": "voted",
          "type": "bool"
        },
        {
          "internalType": "uint256",
          "name": "vote",
          "type": "uint256"
        }
      ],
      "stateMutability": "view",
      "type": "function"
    },
    {
      "inputs": [
        {
          "internalType": "string",
          "name": "_candidateName",
          "type": "string"
        }
      ],
      "name": "addCandidate",
      "outputs": [],
      "stateMutability": "nonpayable",
      "type": "function"
    },
    {
      "inputs": [],
      "name": "getNumCandidates",
      "outputs": [
        {
          "internalType": "uint256",
          "name": "",
          "type": "uint256"
        }
      ],
      "stateMutability": "view",
      "type": "function"
    },
    {
      "inputs": [
        {
          "internalType": "uint256",
          "name": "_index",
          "type": "uint256"
        }
      ],
      "name": "getCadidate",
      "outputs": [
        {
          "internalType": "string",
          "name": "",
          "type": "string"
        }
      ],
      "stateMutability": "view",
      "type": "function"
    },
    {
      "inputs": [
        {
          "internalType": "address",
          "name": "_person",
          "type": "address"
        }
      ],
      "name": "authorize",
      "outputs": [],
      "stateMutability": "nonpayable",
      "type": "function"
    },
    {
      "inputs": [
        {
          "internalType": "uint256",
          "name": "candidateIndex",
          "type": "uint256"
        }
      ],
      "name": "vote",
      "outputs": [],
      "stateMutability": "nonpayable",
      "type": "function"
    },
    {
      "inputs": [],
      "name": "end",
      "outputs": [],
      "stateMutability": "nonpayable",
      "type": "function"
    }
  ],
  "bytecode": "0x60806040523480156200001157600080fd5b50604051620011f7380380620011f78339818101604052810190620000379190620002e4565b336000806101000a81548173ffffffffffffffffffffffffffffffffffffffff021916908373ffffffffffffffffffffffffffffffffffffffff16021790555080600190805190602001906200008f92919062000097565b50506200039a565b828054620000a59062000364565b90600052602060002090601f016020900481019282620000c9576000855562000115565b82601f10620000e457805160ff191683800117855562000115565b8280016001018555821562000115579182015b8281111562000114578251825591602001919060010190620000f7565b5b50905062000124919062000128565b5090565b5b808211156200014357600081600090555060010162000129565b5090565b6000604051905090565b600080fd5b600080fd5b600080fd5b600080fd5b6000601f19601f8301169050919050565b7f4e487b7100000000000000000000000000000000000000000000000000000000600052604160045260246000fd5b620001b08262000165565b810181811067ffffffffffffffff82111715620001d257620001d162000176565b5b80604052505050565b6000620001e762000147565b9050620001f58282620001a5565b919050565b600067ffffffffffffffff82111562000218576200021762000176565b5b620002238262000165565b9050602081019050919050565b60005b838110156200025057808201518184015260208101905062000233565b8381111562000260576000848401525b50505050565b60006200027d6200027784620001fa565b620001db565b9050828152602081018484840111156200029c576200029b62000160565b5b620002a984828562000230565b509392505050565b600082601f830112620002c957620002c86200015b565b5b8151620002db84826020860162000266565b91505092915050565b600060208284031215620002fd57620002fc62000151565b5b600082015167ffffffffffffffff8111156200031e576200031d62000156565b5b6200032c84828501620002b1565b91505092915050565b7f4e487b7100000000000000000000000000000000000000000000000000000000600052602260045260246000fd5b600060028204905060018216806200037d57607f821691505b6020821081141562000394576200039362000335565b5b50919050565b610e4d80620003aa6000396000f3fe608060405234801561001057600080fd5b50600436106100a95760003560e01c806385e8e7a71161007157806385e8e7a7146101535780638da5cb5b14610171578063a3ec138d1461018f578063b4180a64146101c1578063b6a5d7de146101f1578063efbe1c1c1461020d576100a9565b80630121b93f146100ae5780630d15fd77146100ca5780633477ee2e146100e8578063462e91ec146101195780635c06b06e14610135575b600080fd5b6100c860048036038101906100c3919061093b565b610217565b005b6100d26103c6565b6040516100df9190610977565b60405180910390f35b61010260048036038101906100fd919061093b565b6103cc565b604051610110929190610a2b565b60405180910390f35b610133600480360381019061012e9190610b90565b610488565b005b61013d61054d565b60405161014a9190610977565b60405180910390f35b61015b61055a565b6040516101689190610bd9565b60405180910390f35b6101796105e8565b6040516101869190610c3c565b60405180910390f35b6101a960048036038101906101a49190610c83565b61060c565b6040516101b893929190610ccb565b60405180910390f35b6101db60048036038101906101d6919061093b565b610650565b6040516101e89190610bd9565b60405180910390f35b61020b60048036038101906102069190610c83565b610707565b005b6102156107bd565b005b600260003373ffffffffffffffffffffffffffffffffffffffff1673ffffffffffffffffffffffffffffffffffffffff16815260200190815260200160002060000160009054906101000a900460ff1661027057600080fd5b600260003373ffffffffffffffffffffffffffffffffffffffff1673ffffffffffffffffffffffffffffffffffffffff16815260200190815260200160002060000160019054906101000a900460ff16156102ca57600080fd5b6001600260003373ffffffffffffffffffffffffffffffffffffffff1673ffffffffffffffffffffffffffffffffffffffff16815260200190815260200160002060000160016101000a81548160ff02191690831515021790555080600260003373ffffffffffffffffffffffffffffffffffffffff1673ffffffffffffffffffffffffffffffffffffffff1681526020019081526020016000206001018190555060016003828154811061038257610381610d02565b5b906000526020600020906002020160010160008282546103a29190610d60565b925050819055506001600460008282546103bc9190610d60565b9250508190555050565b60045481565b600381815481106103dc57600080fd5b90600052602060002090600202016000915090508060000180546103ff90610de5565b80601f016020809104026020016040519081016040528092919081815260200182805461042b90610de5565b80156104785780601f1061044d57610100808354040283529160200191610478565b820191906000526020600020905b81548152906001019060200180831161045b57829003601f168201915b5050505050908060010154905082565b60008054906101000a900473ffffffffffffffffffffffffffffffffffffffff1673ffffffffffffffffffffffffffffffffffffffff163373ffffffffffffffffffffffffffffffffffffffff16146104e057600080fd5b6003604051806040016040528083815260200160008152509080600181540180825580915050600190039060005260206000209060020201600090919091909150600082015181600001908051906020019061053d92919061084e565b5060208201518160010155505050565b6000600380549050905090565b6001805461056790610de5565b80601f016020809104026020016040519081016040528092919081815260200182805461059390610de5565b80156105e05780601f106105b5576101008083540402835291602001916105e0565b820191906000526020600020905b8154815290600101906020018083116105c357829003601f168201915b505050505081565b60008054906101000a900473ffffffffffffffffffffffffffffffffffffffff1681565b60026020528060005260406000206000915090508060000160009054906101000a900460ff16908060000160019054906101000a900460ff16908060010154905083565b60606003828154811061066657610665610d02565b5b9060005260206000209060020201600001805461068290610de5565b80601f01602080910402602001604051908101604052809291908181526020018280546106ae90610de5565b80156106fb5780601f106106d0576101008083540402835291602001916106fb565b820191906000526020600020905b8154815290600101906020018083116106de57829003601f168201915b50505050509050919050565b60008054906101000a900473ffffffffffffffffffffffffffffffffffffffff1673ffffffffffffffffffffffffffffffffffffffff163373ffffffffffffffffffffffffffffffffffffffff161461075f57600080fd5b6001600260008373ffffffffffffffffffffffffffffffffffffffff1673ffffffffffffffffffffffffffffffffffffffff16815260200190815260200160002060000160006101000a81548160ff02191690831515021790555050565b60008054906101000a900473ffffffffffffffffffffffffffffffffffffffff1673ffffffffffffffffffffffffffffffffffffffff163373ffffffffffffffffffffffffffffffffffffffff161461081557600080fd5b60008054906101000a900473ffffffffffffffffffffffffffffffffffffffff1673ffffffffffffffffffffffffffffffffffffffff16ff5b82805461085a90610de5565b90600052602060002090601f01602090048101928261087c57600085556108c3565b82601f1061089557805160ff19168380011785556108c3565b828001600101855582156108c3579182015b828111156108c25782518255916020019190600101906108a7565b5b5090506108d091906108d4565b5090565b5b808211156108ed5760008160009055506001016108d5565b5090565b6000604051905090565b600080fd5b600080fd5b6000819050919050565b61091881610905565b811461092357600080fd5b50565b6000813590506109358161090f565b92915050565b600060208284031215610951576109506108fb565b5b600061095f84828501610926565b91505092915050565b61097181610905565b82525050565b600060208201905061098c6000830184610968565b92915050565b600081519050919050565b600082825260208201905092915050565b60005b838110156109cc5780820151818401526020810190506109b1565b838111156109db576000848401525b50505050565b6000601f19601f8301169050919050565b60006109fd82610992565b610a07818561099d565b9350610a178185602086016109ae565b610a20816109e1565b840191505092915050565b60006040820190508181036000830152610a4581856109f2565b9050610a546020830184610968565b9392505050565b600080fd5b600080fd5b7f4e487b7100000000000000000000000000000000000000000000000000000000600052604160045260246000fd5b610a9d826109e1565b810181811067ffffffffffffffff82111715610abc57610abb610a65565b5b80604052505050565b6000610acf6108f1565b9050610adb8282610a94565b919050565b600067ffffffffffffffff821115610afb57610afa610a65565b5b610b04826109e1565b9050602081019050919050565b82818337600083830152505050565b6000610b33610b2e84610ae0565b610ac5565b905082815260208101848484011115610b4f57610b4e610a60565b5b610b5a848285610b11565b509392505050565b600082601f830112610b7757610b76610a5b565b5b8135610b87848260208601610b20565b91505092915050565b600060208284031215610ba657610ba56108fb565b5b600082013567ffffffffffffffff811115610bc457610bc3610900565b5b610bd084828501610b62565b91505092915050565b60006020820190508181036000830152610bf381846109f2565b905092915050565b600073ffffffffffffffffffffffffffffffffffffffff82169050919050565b6000610c2682610bfb565b9050919050565b610c3681610c1b565b82525050565b6000602082019050610c516000830184610c2d565b92915050565b610c6081610c1b565b8114610c6b57600080fd5b50565b600081359050610c7d81610c57565b92915050565b600060208284031215610c9957610c986108fb565b5b6000610ca784828501610c6e565b91505092915050565b60008115159050919050565b610cc581610cb0565b82525050565b6000606082019050610ce06000830186610cbc565b610ced6020830185610cbc565b610cfa6040830184610968565b949350505050565b7f4e487b7100000000000000000000000000000000000000000000000000000000600052603260045260246000fd5b7f4e487b7100000000000000000000000000000000000000000000000000000000600052601160045260246000fd5b6000610d6b82610905565b9150610d7683610905565b9250827fffffffffffffffffffffffffffffffffffffffffffffffffffffffffffffffff03821115610dab57610daa610d31565b5b828201905092915050565b7f4e487b7100000000000000000000000000000000000000000000000000000000600052602260045260246000fd5b60006002820490506001821680610dfd57607f821691505b60208210811415610e1157610e10610db6565b5b5091905056fea264697066735822122085b563caf1cfef2382a8fe4b1ffe03a4b007cf65e34c38f46ec0d5b9728350b964736f6c634300080a0033",
  "immutableReferences": {},
  "source": "// SPDX-License-Identifier: GPL-3.0\npragma solidity >=0.7.0 <0.9.0;\n\ncontract Election {\n    struct Candidate {\n        string name;\n        uint256 voteCount;\n    }\n\n    struct Voter {\n        bool authorized;\n        bool voted;\n        uint256 vote;\n    }\n\n    address public owner;\n    string public electionName;\n    mapping(address => Voter) public voters;\n    Candidate[] public candidates;\n    uint256 public totalVotes;\n\n    constructor(string memory _name) {\n        owner = msg.sender;\n        electionName = _name;\n    }\n\n    function addCandidate(string memory _candidateName) public ownerOnly {\n        candidates.push(Candidate(_candidateName, 0));\n    }\n\n    function getNumCandidates() public view returns (uint256) {\n        return candidates.length;\n    }\n\n    function getCadidate(uint256 _index) public view returns (string memory) {\n        return candidates[_index].name;\n    }\n\n    function authorize(address _person) public ownerOnly {\n        voters[_person].authorized = true;\n    }\n\n    function vote(uint256 candidateIndex) public canVote {\n        voters[msg.sender].voted = true;\n        voters[msg.sender].vote = candidateIndex;\n        candidates[candidateIndex].voteCount += 1;\n        totalVotes += 1;\n    }\n\n    function end() public ownerOnly {\n        selfdestruct(payable(owner));\n    }\n\n    modifier ownerOnly() {\n        require(msg.sender == owner);\n        _;\n    }\n\n    modifier canVote() {\n        require(voters[msg.sender].authorized);\n        require(!voters[msg.sender].voted);\n        _;\n    }\n}\n",
  "sourcePath": "/Users/lakshitha/projects/blk-chain/eth-solidity/election/contracts/Election.sol",
  "compiler": {
    "name": "solc",
    "version": "0.8.10+commit.fc410830.Emscripten.clang"
  },
  "schemaVersion": "3.4.4",
  "updatedAt": "2022-01-06T08:35:02.551Z",
  "devdoc": {
    "kind": "dev",
    "methods": {},
    "version": 1
  },
  "userdoc": {
    "kind": "user",
    "methods": {},
    "version": 1
  }
}